:020000040800F2
:1000000070080020CD0100088D020008850200085C
:10001000890200087F0200081103000800000000A8
:10002000000000000000000000000000BB0200080B
:100030008302000800000000B9020008BD020008A9
:10004000E7010008E7010008E7010008E7010008F0
:10005000E7010008E7010008E7010008E7010008E0
:10006000E7010008E7010008E7010008E7010008D0
:10007000E7010008E7010008E7010008E7010008C0
:10008000E7010008E7010008E7010008E7010008B0
:10009000E7010008E7010008E7010008E7010008A0
:1000A000E7010008E7010008E7010008E701000890
:1000B000E7010008E7010008E7010008E701000880
:1000C000E7010008E7010008E7010008E701000870
:1000D000E7010008E7010008E7010008E701000860
:1000E000E7010008E7010008E7010008E701000850
:1000F000E7010008E7010008E7010008E701000840
:10010000E7010008E7010008E7010008E70100082F
:10011000E7010008E7010008E7010008E70100081F
:10012000E7010008E7010008E7010008E70100080F
:1001300000F002F800F03AF80AA090E8000C8244BF
:100140008344AAF10107DA4501D100F02FF8AFF29C
:10015000090EBAE80F0013F0010F18BFFB1A43F0A5
:10016000010318470408000024080000103A24BFC7
:1001700078C878C1FAD8520724BF30C830C144BF0C
:1001800004680C607047000000230024002500264E
:10019000103A28BF78C1FBD8520728BF30C148BFEA
:1001A0000B6070471FB51FBD10B510BD00F031F8D2
:1001B0001146FFF7F7FF00F09DFA00F04FF803B487
:1001C000FFF7F2FF03BC00F053F800000948804736
:1001D00009480047FEE7FEE7FEE7FEE7FEE7FEE729
:1001E000FEE7FEE7FEE7FEE704480549054A064B41
:1001F00070470000D502000831010008700000209F
:1002000070080020700400207004002070477047C0
:100210007047754600F028F8AE460500694653461B
:1002200020F00700854618B020B5FFF7DDFFBDE8D8
:1002300020404FF000064FF000074FF000084FF04D
:10024000000B21F00701AC46ACE8C009ACE8C009DE
:10025000ACE8C009ACE8C0098D4670470446AFF36E
:1002600000802046FFF7ABFF004870470C000020DD
:1002700001491820ABBEFEE726000200704700BF10
:10028000FEE7704700BFFEE700BFFEE770470000D3
:1002900010B5002807DA0A07140E054A00F00F030C
:1002A0001B1FD45403E00A07130E024A135410BD57
:1002B00018ED00E000E400E07047704710B5044816
:1002C0000068401C0249086000F024F810BD0000DE
:1002D0000400002010B50C48006840F001000A49F5
:1002E000086000204860C862084600680749084066
:1002F000054908600846006820F480200860002056
:10030000886000F02DFB10BD00100240FFFFF6FEDC
:1003100000BFFEE70448006820B103480068401EA3
:1003200001490860704700000800002070B50446CD
:1003300000250020064908602146064800F065FABD
:1003400000BF0221034800F062FA0028F9D070BD16
:10035000980121420030014070B50446002501207B
:10036000064908602146064800F04FFA00BF022106
:10037000034800F04CFA0028F9D070BD98012142E2
:100380000030014070B505460C462846FFF7E4FFF3
:100390002046FFF7E1FF70BD10B5124800684FF42A
:1003A0007A71B0FBF1F4601EB0F1807F01D30120BF
:1003B0000FE0601E4FF0E02148610F214FF0FF3049
:1003C000FFF766FF00204FF0E021886107200861F9
:1003D000002008B100BFFEE70021481EFFF758FFCC
:1003E00010BD0000000000200349086000BF024962
:1003F00009680029FBD170470800002070B5044649
:10040000002509E0002604E0E1B22012FFF7BAFF60
:10041000761CF02EF8DB6D1CF02DF3DB70BD0000B8
:1004200010B50120764908606420FFF7DDFF002049
:100430007449C1F8A0016420FFF7D6FF012070497C
:1004400008607820FFF7D0FF1120FFF76FFFC8206A
:10045000FFF7CAFF3620FFF769FF0020FFF77CFF98
:100460003A20FFF763FF0520FFF776FFB220FFF782
:100470005DFF0C20FFF770FF0C20FFF76DFF0020E1
:10048000FFF76AFF3320FFF767FF3320FFF764FFB2
:10049000B720FFF74BFF3520FFF75EFFBB20FFF7CC
:1004A00045FF2C20FFF758FFC020FFF73FFF2C200F
:1004B000FFF752FFC220FFF739FF0120FFF74CFF83
:1004C000C320FFF733FF0B20FFF746FFC420FFF7E1
:1004D0002DFF2020FFF740FFC620FFF727FF0F204A
:1004E000FFF73AFFD020FFF721FFA420FFF734FFEA
:1004F000A120FFF731FFE020FFF718FFD020FFF722
:100500002BFF0620FFF728FF0120FFF725FF0E2015
:10051000FFF722FF0E20FFF71FFF0820FFF71CFF49
:100520003220FFF719FF4420FFF716FF4020FFF7A6
:1005300013FF0820FFF710FF1020FFF70DFF0F201B
:10054000FFF70AFF1520FFF707FF1920FFF704FF49
:10055000E120FFF7EBFED020FFF7FEFE0620FFF7BD
:10056000FBFE0120FFF7F8FE0F20FFF7F5FE0E203F
:10057000FFF7F2FE0920FFF7EFFE2F20FFF7ECFE5A
:100580005420FFF7E9FE4420FFF7E6FE0F20FFF7B7
:10059000E3FE1D20FFF7E0FE1A20FFF7DDFE162028
:1005A000FFF7DAFE1920FFF7D7FE2120FFF7BEFE86
:1005B0002920FFF7BBFE7820FFF716FF2A20FFF760
:1005C000B5FE0020FFF7C8FE0020FFF7C5FE0020A3
:1005D000FFF7C2FEEF20FFF7BFFE2B20FFF7A6FEBE
:1005E0000020FFF7B9FE0020FFF7B6FE0020FFF75E
:1005F000B3FEEF20FFF7B0FE2C20FFF797FE10BDF3
:10060000A00121420000214210B540F2026000F03A
:10061000CDF8012303221021034800F019F801202E
:1006200001491431086010BD0008014010B5A02335
:1006300003221821054800F00BF84FF4A0730322A1
:100640001021024800F004F810BD0000000801402D
:10065000F0B50C4616460025002204F00F0504F004
:10066000100747B1042E05D145F00305C76B1F43A2
:10067000C76300E03543002118E001278F401F4089
:1006800097B102684FEA810C0F2707FA0CF7BA43BB
:100690008F0005FA07F73A43282C01D1436102E0A5
:1006A000482C00D1036102604F1CB9B20829E4D381
:1006B00008211CE001278F401F40B7B14268A1F11B
:1006C00008074FEA870C0F2707FA0CF7BA43A1F186
:1006D0000807BF0005FA07F73A43282C01D1436108
:1006E00002E0482C00D1036142604F1CB9B21029CE
:1006F000E0D3F0BDFFF750FE00F04EF8FFF796FF95
:10070000FFF782FF00F062F81F4800F079F8FFF76A
:1007100087FEFFF785FE4FF61F00FFF76FFE31E003
:100720001A480068C0431A49C1F8800100201949DD
:1007300008604FF47840FFF761FE4FF47A70FFF7DE
:1007400053FE1348D0F88001C043104908600020D0
:10075000104908604FF4FC60FFF750FE4FF47A70C8
:10076000FFF742FE0A48D0F88001C04307490860FD
:100770000020084908601F20FFF740FE4FF47A7000
:10078000FFF732FECCE7000000300140800121423B
:10079000000021420400002010B540F2026000F089
:1007A00005F840F20C6000F001F810BD064A02EBBB
:1007B0009011096800F01F0301229A401143024B77
:1007C00003EB9012116070470010024000B587B033
:1007D0004FF4404001904FF482700090002002904E
:1007E000022005900002039008200690002004904B
:1007F0006946024800F013F807B000BD0030014020
:10080000016841F0400101607047C16070470246D5
:100810009068084008B1012070470020FCE70246BC
:100820000020106800F441500B6818434B681843CF
:100830008B681843CB6818430B6918434B691843FE
:100840008B6918431060D36923F40063D361704748
:10085000002000213E4A126842F480323C4B1A606C
:1008600000BF401C3A4A126802F4003111B9B0F5D9
:10087000006FF6D1364A126802F400320AB900BF9E
:10088000FEE7334AD26942F08052314BDA61314A95
:10089000126842F440422F4B1A602D4A52682C4B8A
:1008A0005A601A4652685A601A46526842F4806288
:1008B0005A601A46526822F440325A601A46526808
:1008C00042F440325A601A465268234B1A40204B79
:1008D0005A601A465268214B1A431D4B5A601A46F9
:1008E000126842F080721A6000BF194A126802F062
:1008F0000072002AF9D0174A126842F48032154B70
:100900001A6000BF134A526802F48032002AF9D0FC
:10091000104A126842F400320E4B1A6000BF0D4AB2
:10092000526802F40032002AF9D0094A526822F0D3
:100930000302074B5A601A46526842F002025A609C
:1009400000BF034A526802F00802002AF9D070473B
:100950000010024000700040FFFFC3B700003408E1
:1009600010B5FFF775FF10BD8809000800000020D2
:100970000C0000006C010008940900080C00002025
:100980006408000088010008000E2707000000002E
:040990000000000063
:0400000508000131BD
:00000001FF
