:020000040800F2
:1000000060080020B10100087102000869020008C0
:100010006D02000863020008B5020008000000003D
:100020000000000000000000000000007502000851
:100030006702000800000000730200087702000851
:10004000CB010008CB010008CB010008CB01000860
:10005000CB010008CB010008CB010008CB01000850
:10006000CB010008CB010008CB010008CB01000840
:10007000CB010008CB010008CB010008CB01000830
:10008000CB010008CB010008CB010008CB01000820
:10009000CB010008CB010008CB010008CB01000810
:1000A000CB010008CB010008CB010008CB01000800
:1000B000CB010008CB010008CB010008CB010008F0
:1000C000CB010008CB010008CB010008CB010008E0
:1000D000CB010008CB010008CB010008CB010008D0
:1000E000CB010008CB010008CB010008CB010008C0
:1000F000CB010008CB010008CB010008CB010008B0
:10010000CB010008CB010008CB010008CB0100089F
:10011000CB010008CB010008CB010008CB0100088F
:10012000CB010008CB010008CB010008CB0100087F
:1001300000F002F800F02CF80AA090E8000C8244CD
:100140008344AAF10107DA4501D100F021F8AFF2AA
:10015000090EBAE80F0013F0010F18BFFB1A43F0A5
:1001600001031847680300007803000000230024FF
:1001700000250026103A28BF78C1FBD8520728BFB7
:1001800030C148BF0B6070471FB51FBD10B510BD13
:1001900000F031F81146FFF7F7FF00F0F1F800F03A
:1001A0004FF803B4FFF7F2FF03BC00F053F8000070
:1001B0000948804709480047FEE7FEE7FEE7FEE7FB
:1001C000FEE7FEE7FEE7FEE7FEE7FEE70448054937
:1001D000054A064B7047000079020008310100080B
:1001E00060000020600800206004002060040020FF
:1001F000704770477047754600F028F8AE46050016
:100200006946534620F00700854618B020B5FFF731
:10021000DDFFBDE820404FF000064FF000074FF033
:1002200000084FF0000B21F00701AC46ACE8C00914
:10023000ACE8C009ACE8C009ACE8C0098D4670471D
:100240000446AFF300802046FFF7ABFF004870473D
:100250000000002001491820ABBEFEE72600020086
:10026000704700BFFEE7704700BFFEE700BFFEE734
:10027000704770477047704710B50C48006840F0F1
:1002800001000A49086000204860C862084600680A
:1002900007490840054908600846006820F48020A6
:1002A00008600020886000F00DF910BD00100240C9
:1002B000FFFFF6FE00BFFEE710B540F2026000F05F
:1002C00069F8012303221021034800F007F80120F8
:1002D00001491431086010BD00080140F0B50C461A
:1002E00016460025002204F00F0504F0100747B160
:1002F000042E05D145F00305C76B1F43C76300E01B
:100300003543002118E001278F401F4097B1026854
:100310004FEA810C0F2707FA0CF7BA438F0005FA52
:1003200007F73A43282C01D1436102E0482C00D161
:10033000036102604F1CB9B20829E4D308211CE014
:1003400001278F401F40B7B14268A1F108074FEA6B
:10035000870C0F2707FA0CF7BA43A1F10807BF0073
:1003600005FA07F73A43282C01D1436102E0482CF3
:1003700000D1036142604F1CB9B21029E0D3F0BD37
:10038000FFF79AFF01200249086000BFFEE7000066
:1003900080012142064A02EB9011096800F01F0318
:1003A00001229A401143024B03EB901211607047F7
:1003B00000100240002000213E4A126842F48032C0
:1003C0003C4B1A6000BF401C3A4A126802F40031EC
:1003D00011B9B0F5006FF6D1364A126802F4003256
:1003E0000AB900BFFEE7334AD26942F08052314B6E
:1003F000DA61314A126842F440422F4B1A602D4AAA
:1004000052682C4B5A601A4652685A601A46526813
:1004100042F480625A601A46526822F440325A60AE
:100420001A46526842F440325A601A465268234BC8
:100430001A40204B5A601A465268214B1A431D4BF2
:100440005A601A46126842F080721A6000BF194A58
:10045000126802F00072002AF9D0174A126842F4BA
:100460008032154B1A6000BF134A526802F4803282
:10047000002AF9D0104A126842F400320E4B1A607A
:1004800000BF0D4A526802F40032002AF9D0094A2E
:10049000526822F00302074B5A601A46526842F033
:1004A00002025A6000BF034A526802F00802002AA2
:1004B000F9D070470010024000700040FFFFC3B742
:1004C0000000340810B5FFF775FF10BDDC0400080C
:0C04D00000000020600800006C01000823
:0400000508000131BD
:00000001FF
