:020000040800F2
:1000000038070020CD0100089D0300089503000873
:1000100099030008750200082F070008000000007F
:10002000000000000000000000000000D3040008F1
:1000300079020008000000009F030008E5050008A1
:10004000E7010008E7010008E7010008E7010008F0
:10005000E7010008E7010008E7010008E7010008E0
:10006000E7010008E7010008E7010008E7010008D0
:10007000E7010008E7010008E7010008E7010008C0
:10008000E7010008E7010008E7010008E7010008B0
:10009000E7010008E7010008E7010008E7010008A0
:1000A000E7010008E7010008E7010008E701000890
:1000B000E7010008E7010008E7010008E701000880
:1000C000E7010008E7010008E7010008E701000870
:1000D000E701000849060008E7010008E7010008F9
:1000E000E7010008E7010008E7010008E701000850
:1000F000E7010008E7010008E7010008E701000840
:10010000E7010008E7010008E7010008E70100082F
:10011000E7010008E7010008E7010008E70100081F
:10012000E7010008E7010008E7010008E70100080F
:1001300000F002F800F03AF80AA090E8000C8244BF
:100140008344AAF10107DA4501D100F02FF8AFF29C
:10015000090EBAE80F0013F0010F18BFFB1A43F0A5
:1001600001031847000B0000200B0000103A24BFC9
:1001700078C878C1FAD8520724BF30C830C144BF0C
:1001800004680C607047000000230024002500264E
:10019000103A28BF78C1FBD8520728BF30C148BFEA
:1001A0000B6070471FB51FBD10B510BD00F033F8D0
:1001B0001146FFF7F7FF00F089FC00F051F803B497
:1001C000FFF7F2FF03BC00F0B4FA000009488047D3
:1001D00009480047FEE7FEE7FEE7FEE7FEE7FEE729
:1001E000FEE7FEE7FEE7FEE704480549054A064B41
:1001F00070470000E90500083101000838010020BF
:10020000380700203803002038030020704770476B
:10021000704770477047754600F028F8AE460500F5
:100220006946534620F00700854618B020B5FFF711
:10023000DBFFBDE820404FF000064FF000074FF015
:1002400000084FF0000B21F00701AC46ACE8C009F4
:10025000ACE8C009ACE8C009ACE8C0098D467047FD
:100260000446AFF300802046FFF7A9FF004870471F
:10027000D800002000BFFEE770472DE9F04102469C
:1002800000250026002000230024002791F803C049
:100290000CF00F0591F803C00CF0100CBCF1000F2E
:1002A00003D091F802C04CEA050591F800C0BCF1FA
:1002B000000F31D0146800202BE04FF0010C0CFA35
:1002C00000F3B1F800C00CEA03069E4220D183007F
:1002D0004FF00F0C0CFA03F7BC4305FA03FC4CEA91
:1002E000040491F803C0BCF1280F06D14FF0010CB3
:1002F0000CFA00FCC2F814C00AE091F803C0BCF18B
:10030000480F05D14FF0010C0CFA00FCC2F810C0E8
:10031000401C0828D1D31460B1F800C0BCF1FF0F15
:1003200034DD546800202EE000F1080C4FF0010885
:1003300008FA0CF3B1F800C00CEA03069E4221D182
:1003400083004FF00F0C0CFA03F7BC4305FA03FCD3
:100350004CEA040491F803C0BCF1280F05D100F168
:10036000080C08FA0CF8C2F8148091F803C0BCF12C
:10037000480F07D100F1080C4FF0010808FA0CF8FB
:10038000C2F81080401C0828CED35460BDE8F0812C
:100390000161704700BFFEE700BFFEE7704770478E
:1003A00029B1064A92690243044B9A6104E0034A68
:1003B00092698243014B9A6170470000001002402D
:1003C00000B587B001210420FFF7EAFF01210803EF
:1003D000FFF7E6FF40F24110ADF8180010208DF84D
:1003E0001B0003208DF81A0006A91D48FFF745FFE2
:1003F000A020ADF8180018208DF81B0003208DF800
:100400001A0006A91648FFF738FFA0211448FFF785
:10041000BFFF4FF44040ADF804004FF48270ADF8D8
:1004200006000020ADF808000220ADF80A00012007
:10043000ADF80C004002ADF80E000020ADF8100041
:10044000ADF812000720ADF8140001A9054800F02E
:1004500022F80121034800F007F807B000BD0000B2
:10046000000801400030014021B1028842F0400202
:10047000028004E002884FF6BF731A400280704782
:100480000246002013890B400BB1012000E0002040
:1004900070478181704710B50022028802F44152F2
:1004A0000B884C8823438C882343CC8823430C89B6
:1004B00023434C8923438C892343CC8923431A4308
:1004C0000280838B4FF2FF74234083830B8A038265
:1004D00010BD704710B500F001F810BD0CB500203C
:1004E000019000903348006840F480303149086042
:1004F00000BF3048006800F4003000900198401CB4
:100500000190009818B90198B0F5A06FF1D1294871
:10051000006800F4003010B10120009001E00020DC
:1005200000900098012843D12348006840F0100053
:10053000214908600846006820F00300086008466A
:10054000006840F0020008601A4840681949486095
:100550000846406848600846406840F4806048604B
:100560000846406820F47C1048600846406840F423
:10057000E81048600846006840F08070086000BFDE
:100580000C48006800F000700028F9D00948406865
:1005900020F00300074948600846406840F0020028
:1005A000486000BF0348406800F00C000828F9D1FB
:1005B0000CBD00000010024000200240042808D1B9
:1005C0004FF0E021096941F004014FF0E022116190
:1005D00007E04FF0E021096921F004014FF0E0222B
:1005E000116170477047000010B51348006840F073
:1005F00001001149086008464068104908400E494A
:100600004860084600680E4908400B4908600846E3
:10061000006820F4802008600846406820F4FE004E
:1006200048604FF41F008860FFF754FF4FF00060F0
:100630000449086010BD0000001002400000FFF8EF
:10064000FFFFF6FE08ED00E010B540F225511D4811
:1006500000F03EF810B31B4800F064F8C4B21A482A
:10066000008800F40040C8B91748008800F48040B2
:1006700060B10A2C03D000201349088020E0124802
:10068000008840F400401049088019E00D2C06D184
:100690000D48008840F480400B49088010E00A486B
:1006A0000088C0F30D0009490C5407480088401C1D
:1006B0000549088008460088C72801DD0020088019
:1006C00010BD0000003801400C0000201000002088
:1006D00070B50246002400230025002040F66A166B
:1006E000B14200D100BFC1F3421501F01F03012642
:1006F00006FA03F3012D02D19689334006E0022D5C
:1007000002D1168A334001E0968A33400C1201264A
:1007100006FA04F41688344013B10CB1012000E04D
:10072000002070BD01468888C0F30800704700BFF4
:10073000FEE7014600BF704770B5044600200A4935
:10074000086021460948FFF7A4FE05E02846691C19
:10075000CDB2C82800DD05E002210448FFF790FE75
:100760000028F3D000BF70BD980121420030014045
:1007700070B5044601200A49086021460948FFF780
:1007800088FE05E02846691CCDB2C82800DD05E0DA
:1007900002210448FFF774FE0028F3D000BF70BDAB
:1007A000980121420030014010B50C48006840F02B
:1007B00001000A49086000204860C86208460068D5
:1007C00007490840054908600846006820F4802071
:1007D00008600020886000F041FA10BD001002405F
:1007E000FFFFF6FE70B505460C462846FFF7C0FF32
:1007F0002046FFF7BDFF70BD10B504466FF0040042
:10080000FFF7DCFEE11704EB5171C1F3C701074AA2
:1008100011701046007800EB4001C1EBC0104FF69C
:10082000FF7101EAC0000249088010BD04000020E9
:100830000600002070B504464FF47A70B4FBF0F067
:10084000C5B24FF47A70B4FBF0F100FB114604E03E
:10085000074800F00FF8681EC5B2002DF8D12EB180
:100860004FF47A7106FB01F000F004F870BD00004F
:1008700040420F000146114A12784A434FF0E023EC
:100880005A6100229A611A46126942F001021A6105
:1008900000BF4FF0E022106900F001021AB100F42D
:1008A0008032002AF5D04FF0E022126922F00102D6
:1008B0004FF0E0231A6100229A6170470400002083
:1008C00070B50446002509E0002604E0E1B22012DC
:1008D000FFF788FF761CF02EF8DB6D1CF02DF3DBA4
:1008E00070BD000010B50120764908606420FFF754
:1008F000A1FF00207449C1F8A0016420FFF79AFF0E
:100900000120704908607820FFF794FF1120FFF75D
:1009100013FFC820FFF78EFF3620FFF70DFF0020E2
:10092000FFF726FF3A20FFF707FF0520FFF720FF1C
:10093000B220FFF701FF0C20FFF71AFF0C20FFF792
:1009400017FF0020FFF714FF3320FFF711FF3320BC
:10095000FFF70EFFB720FFF7EFFE3520FFF708FF88
:10096000BB20FFF7E9FE2C20FFF702FFC020FFF7B6
:10097000E3FE2C20FFF7FCFEC220FFF7DDFE012086
:10098000FFF7F6FEC320FFF7D7FE0B20FFF7F0FEC0
:10099000C420FFF7D1FE2020FFF7EAFEC620FFF7B4
:1009A000CBFE0F20FFF7E4FED020FFF7C5FEA4200A
:1009B000FFF7DEFEA120FFF7DBFEE020FFF7BCFE25
:1009C000D020FFF7D5FE0620FFF7D2FE0120FFF76B
:1009D000CFFE0E20FFF7CCFE0E20FFF7C9FE082049
:1009E000FFF7C6FE3220FFF7C3FE4420FFF7C0FE2C
:1009F0004020FFF7BDFE0820FFF7BAFE1020FFF7EA
:100A0000B7FE0F20FFF7B4FE1520FFF7B1FE192047
:100A1000FFF7AEFEE120FFF78FFED020FFF7A8FE24
:100A20000620FFF7A5FE0120FFF7A2FE0F20FFF72B
:100A30009FFE0E20FFF79CFE0920FFF799FE2F2056
:100A4000FFF796FE5420FFF793FE4420FFF790FE39
:100A50000F20FFF78DFE1D20FFF78AFE1A20FFF7FB
:100A600087FE1620FFF784FE1920FFF781FE212064
:100A7000FFF762FE2920FFF75FFE7820FFF7DAFE1E
:100A80002A20FFF759FE0020FFF772FE0020FFF733
:100A90006FFE0020FFF76CFEEF20FFF769FE2B20B2
:100AA000FFF74AFE0020FFF763FE0020FFF760FE1D
:100AB0000020FFF75DFEEF20FFF75AFE2C20FFF726
:100AC0003BFE10BDA001214200002142FFF76CFE59
:100AD0007820FFF791FEFFF773FCFFF703FFFFF7A6
:100AE00001FF4FF61F00FFF7EBFE2AE015480068F4
:100AF000C0431549C1F880014FF47840FFF7E0FE8C
:100B00004FF47A70FFF796FE0F48D0F88001C0438B
:100B10000D49C1F880014FF4FC60FFF7D1FE4FF49E
:100B20007A70FFF787FE0848D0F88001C043064975
:100B3000C1F880011F20FFF7C3FE4FF47A70FFF762
:100B400079FED3E7800121420000214200200021EC
:100B50003E4A126842F480323C4B1A6000BF401C8F
:100B60003A4A126802F4003111B9B0F5006FF6D1BB
:100B7000364A126802F400320AB900BFFEE7334A6F
:100B8000D26942F08052314BDA61314A126842F444
:100B900040422F4B1A602D4A52682C4B5A601A461D
:100BA00052685A601A46526842F480625A601A4685
:100BB000526822F440325A601A46526842F4403277
:100BC0005A601A465268234B1A40204B5A601A4604
:100BD0005268214B1A431D4B5A601A46126842F064
:100BE00080721A6000BF194A126802F00072002A6F
:100BF000F9D0174A126842F48032154B1A6000BFD0
:100C0000134A526802F48032002AF9D0104A12685E
:100C100042F400320E4B1A6000BF0D4A526802F4D3
:100C20000032002AF9D0094A526822F00302074B29
:100C30005A601A46526842F002025A6000BF034AE4
:100C4000526802F00802002AF9D0704700100240F2
:100C500000700040FFFFC3B70000340810B5FFF775
:100C600075FF10BD840C000800000020100000007B
:100C70006C010008940C00081000002028070000F8
:100C800088010008000000000000000000000000D3
:040C90000000000060
:04000005080001CD21
:00000001FF
